{"abi":[{"type":"function","name":"donorNames","inputs":[{"name":"","type":"address","internalType":"address"}],"outputs":[{"name":"","type":"string","internalType":"string"}],"stateMutability":"view"},{"type":"function","name":"getDonorName","inputs":[{"name":"_donorAddress","type":"address","internalType":"address"}],"outputs":[{"name":"","type":"string","internalType":"string"}],"stateMutability":"view"},{"type":"function","name":"getOrder","inputs":[{"name":"_orderId","type":"uint256","internalType":"uint256"}],"outputs":[{"name":"","type":"address","internalType":"address"},{"name":"","type":"string","internalType":"string"},{"name":"","type":"uint256","internalType":"uint256"},{"name":"","type":"string","internalType":"string"},{"name":"","type":"string","internalType":"string"},{"name":"","type":"string[]","internalType":"string[]"},{"name":"","type":"string[]","internalType":"string[]"},{"name":"","type":"string","internalType":"string"},{"name":"","type":"string","internalType":"string"},{"name":"","type":"string","internalType":"string"},{"name":"","type":"uint256","internalType":"uint256"}],"stateMutability":"view"},{"type":"function","name":"logOrders","inputs":[{"name":"_donorName","type":"string","internalType":"string"},{"name":"_institution","type":"string","internalType":"string"},{"name":"_storeName","type":"string","internalType":"string"},{"name":"_paymentMethod","type":"string","internalType":"string"},{"name":"_itemNames","type":"string[]","internalType":"string[]"},{"name":"_quantities","type":"string[]","internalType":"string[]"},{"name":"_paymentAmount","type":"string","internalType":"string"}],"outputs":[],"stateMutability":"nonpayable"},{"type":"function","name":"orderCounter","inputs":[],"outputs":[{"name":"","type":"uint256","internalType":"uint256"}],"stateMutability":"view"},{"type":"function","name":"orders","inputs":[{"name":"","type":"uint256","internalType":"uint256"}],"outputs":[{"name":"orderId","type":"uint256","internalType":"uint256"},{"name":"donorAddress","type":"address","internalType":"address"},{"name":"institution","type":"string","internalType":"string"},{"name":"store","type":"string","internalType":"string"},{"name":"paymentAmount","type":"string","internalType":"string"},{"name":"paymentMethod","type":"string","internalType":"string"},{"name":"status","type":"string","internalType":"string"},{"name":"timestamp","type":"uint256","internalType":"uint256"}],"stateMutability":"view"},{"type":"event","name":"OrderLogged","inputs":[{"name":"orderId","type":"uint256","indexed":true,"internalType":"uint256"},{"name":"donorAddress","type":"address","indexed":false,"internalType":"address"},{"name":"institution","type":"string","indexed":false,"internalType":"string"},{"name":"store","type":"string","indexed":false,"internalType":"string"},{"name":"itemNames","type":"string[]","indexed":false,"internalType":"string[]"},{"name":"quantities","type":"string[]","indexed":false,"internalType":"string[]"},{"name":"paymentAmount","type":"string","indexed":false,"internalType":"string"},{"name":"paymentMethod","type":"string","indexed":false,"internalType":"string"},{"name":"status","type":"string","indexed":false,"internalType":"string"},{"name":"timestamp","type":"uint256","indexed":false,"internalType":"uint256"}],"anonymous":false}],"bytecode":{"object":"0x6080604052348015600e575f5ffd5b506115778061001c5f395ff3fe608060405234801561000f575f5ffd5b5060043610610060575f3560e01c80630cf4bbfd146100645780633dd288401461008d578063a85c38ef146100a2578063aea8bade146100c9578063b789bf52146100dc578063d09ef241146100f3575b5f5ffd5b610077610072366004610dde565b61011d565b6040516100849190610e39565b60405180910390f35b6100a061009b366004610f9c565b6101c6565b005b6100b56100b03660046110cc565b610401565b6040516100849897969594939291906110e3565b6100776100d7366004610dde565b6106ea565b6100e560015481565b604051908152602001610084565b6101066101013660046110cc565b610781565b6040516100849b9a999897969594939291906111cb565b6001600160a01b0381165f9081526020819052604090208054606091906101439061129a565b80601f016020809104026020016040519081016040528092919081815260200182805461016f9061129a565b80156101ba5780601f10610191576101008083540402835291602001916101ba565b820191905f5260205f20905b81548152906001019060200180831161019d57829003601f168201915b50505050509050919050565b81518351146102285760405162461bcd60e51b815260206004820152602360248201527f4974656d7320616e64207175616e74697469657320636f756e74206d69736d616044820152620e8c6d60eb1b60648201526084015b60405180910390fd5b335f908152602081905260409020610240888261131e565b5060018054905f610250836113d8565b9091555050600180545f90815260026020526040902090810180546001600160a01b0319163317905560038101610287878261131e565b5060028101610296888261131e565b506001548155600581016102aa838261131e565b50600681016102b9868261131e565b50604080518082019091526006815265131bd9d9d95960d21b602082015260078201906102e6908261131e565b504260088201555f5b845181101561038a57816004016040518060400160405280878481518110610319576103196113fc565b60200260200101518152602001868481518110610338576103386113fc565b60209081029190910181015190915282546001810184555f9384529220815191926002020190819061036a908261131e565b506020820151600182019061037f908261131e565b5050506001016102ef565b508054600182015460088301546040517f2386819ec6d754d9c93378b625edbb1e069fa54cad46a3fcbace9d91d79fddf1926103ef926001600160a01b0390911691600287019160038801918b918b9160058b019160068c019160078d01919061148f565b60405180910390a25050505050505050565b600260208190525f918252604090912080546001820154928201805491936001600160a01b031692916104339061129a565b80601f016020809104026020016040519081016040528092919081815260200182805461045f9061129a565b80156104aa5780601f10610481576101008083540402835291602001916104aa565b820191905f5260205f20905b81548152906001019060200180831161048d57829003601f168201915b5050505050908060030180546104bf9061129a565b80601f01602080910402602001604051908101604052809291908181526020018280546104eb9061129a565b80156105365780601f1061050d57610100808354040283529160200191610536565b820191905f5260205f20905b81548152906001019060200180831161051957829003601f168201915b50505050509080600501805461054b9061129a565b80601f01602080910402602001604051908101604052809291908181526020018280546105779061129a565b80156105c25780601f10610599576101008083540402835291602001916105c2565b820191905f5260205f20905b8154815290600101906020018083116105a557829003601f168201915b5050505050908060060180546105d79061129a565b80601f01602080910402602001604051908101604052809291908181526020018280546106039061129a565b801561064e5780601f106106255761010080835404028352916020019161064e565b820191905f5260205f20905b81548152906001019060200180831161063157829003601f168201915b5050505050908060070180546106639061129a565b80601f016020809104026020016040519081016040528092919081815260200182805461068f9061129a565b80156106da5780601f106106b1576101008083540402835291602001916106da565b820191905f5260205f20905b8154815290600101906020018083116106bd57829003601f168201915b5050505050908060080154905088565b5f60208190529081526040902080546107029061129a565b80601f016020809104026020016040519081016040528092919081815260200182805461072e9061129a565b80156107795780601f1061075057610100808354040283529160200191610779565b820191905f5260205f20905b81548152906001019060200180831161075c57829003601f168201915b505050505081565b5f60605f60608060608060608060605f5f8c1180156107a257506001548c11155b6107e55760405162461bcd60e51b815260206004820152601460248201527313dc99195c88191bd95cc81b9bdd08195e1a5cdd60621b604482015260640161021f565b5f8c815260026020526040812060048101549091816001600160401b0381111561081157610811610e4b565b60405190808252806020026020018201604052801561084457816020015b606081526020019060019003908161082f5790505b5090505f826001600160401b0381111561086057610860610e4b565b60405190808252806020026020018201604052801561089357816020015b606081526020019060019003908161087e5790505b5090505f5b83811015610a37578460040181815481106108b5576108b56113fc565b905f5260205f2090600202015f0180546108ce9061129a565b80601f01602080910402602001604051908101604052809291908181526020018280546108fa9061129a565b80156109455780601f1061091c57610100808354040283529160200191610945565b820191905f5260205f20905b81548152906001019060200180831161092857829003601f168201915b505050505083828151811061095c5761095c6113fc565b602002602001018190525084600401818154811061097c5761097c6113fc565b905f5260205f20906002020160010180546109969061129a565b80601f01602080910402602001604051908101604052809291908181526020018280546109c29061129a565b8015610a0d5780601f106109e457610100808354040283529160200191610a0d565b820191905f5260205f20905b8154815290600101906020018083116109f057829003601f168201915b5050505050828281518110610a2457610a246113fc565b6020908102919091010152600101610898565b5060018401546001600160a01b03165f818152602081905260409020855460088701548254600289019160038a01918891889160058d019160068e019160078f0191908a90610a859061129a565b80601f0160208091040260200160405190810160405280929190818152602001828054610ab19061129a565b8015610afc5780601f10610ad357610100808354040283529160200191610afc565b820191905f5260205f20905b815481529060010190602001808311610adf57829003601f168201915b50505050509950878054610b0f9061129a565b80601f0160208091040260200160405190810160405280929190818152602001828054610b3b9061129a565b8015610b865780601f10610b5d57610100808354040283529160200191610b86565b820191905f5260205f20905b815481529060010190602001808311610b6957829003601f168201915b50505050509750868054610b999061129a565b80601f0160208091040260200160405190810160405280929190818152602001828054610bc59061129a565b8015610c105780601f10610be757610100808354040283529160200191610c10565b820191905f5260205f20905b815481529060010190602001808311610bf357829003601f168201915b50505050509650838054610c239061129a565b80601f0160208091040260200160405190810160405280929190818152602001828054610c4f9061129a565b8015610c9a5780601f10610c7157610100808354040283529160200191610c9a565b820191905f5260205f20905b815481529060010190602001808311610c7d57829003601f168201915b50505050509350828054610cad9061129a565b80601f0160208091040260200160405190810160405280929190818152602001828054610cd99061129a565b8015610d245780601f10610cfb57610100808354040283529160200191610d24565b820191905f5260205f20905b815481529060010190602001808311610d0757829003601f168201915b50505050509250818054610d379061129a565b80601f0160208091040260200160405190810160405280929190818152602001828054610d639061129a565b8015610dae5780601f10610d8557610100808354040283529160200191610dae565b820191905f5260205f20905b815481529060010190602001808311610d9157829003601f168201915b505050505091509e509e509e509e509e509e509e509e509e509e509e505050505091939597999b90929496989a50565b5f60208284031215610dee575f5ffd5b81356001600160a01b0381168114610e04575f5ffd5b9392505050565b5f81518084528060208401602086015e5f602082860101526020601f19601f83011685010191505092915050565b602081525f610e046020830184610e0b565b634e487b7160e01b5f52604160045260245ffd5b604051601f8201601f191681016001600160401b0381118282101715610e8757610e87610e4b565b604052919050565b5f82601f830112610e9e575f5ffd5b81356001600160401b03811115610eb757610eb7610e4b565b610eca601f8201601f1916602001610e5f565b818152846020838601011115610ede575f5ffd5b816020850160208301375f918101602001919091529392505050565b5f82601f830112610f09575f5ffd5b81356001600160401b03811115610f2257610f22610e4b565b8060051b610f3260208201610e5f565b91825260208185018101929081019086841115610f4d575f5ffd5b6020860192505b83831015610f925782356001600160401b03811115610f71575f5ffd5b610f80886020838a0101610e8f565b83525060209283019290910190610f54565b9695505050505050565b5f5f5f5f5f5f5f60e0888a031215610fb2575f5ffd5b87356001600160401b03811115610fc7575f5ffd5b610fd38a828b01610e8f565b97505060208801356001600160401b03811115610fee575f5ffd5b610ffa8a828b01610e8f565b96505060408801356001600160401b03811115611015575f5ffd5b6110218a828b01610e8f565b95505060608801356001600160401b0381111561103c575f5ffd5b6110488a828b01610e8f565b94505060808801356001600160401b03811115611063575f5ffd5b61106f8a828b01610efa565b93505060a08801356001600160401b0381111561108a575f5ffd5b6110968a828b01610efa565b92505060c08801356001600160401b038111156110b1575f5ffd5b6110bd8a828b01610e8f565b91505092959891949750929550565b5f602082840312156110dc575f5ffd5b5035919050565b8881526001600160a01b0388166020820152610100604082018190525f9061110d90830189610e0b565b828103606084015261111f8189610e0b565b905082810360808401526111338188610e0b565b905082810360a08401526111478187610e0b565b905082810360c084015261115b8186610e0b565b9150508260e08301529998505050505050505050565b5f82825180855260208501945060208160051b830101602085015f5b838110156111bf57601f198584030188526111a9838351610e0b565b602098890198909350919091019060010161118d565b50909695505050505050565b6001600160a01b038c16815261016060208201525f6111ee61016083018d610e0b565b8b60408401528281036060840152611206818c610e0b565b9050828103608084015261121a818b610e0b565b905082810360a084015261122e818a611171565b905082810360c08401526112428189611171565b905082810360e08401526112568188610e0b565b905082810361010084015261126b8187610e0b565b90508281036101208401526112808186610e0b565b915050826101408301529c9b505050505050505050505050565b600181811c908216806112ae57607f821691505b6020821081036112cc57634e487b7160e01b5f52602260045260245ffd5b50919050565b601f82111561131957805f5260205f20601f840160051c810160208510156112f75750805b601f840160051c820191505b81811015611316575f8155600101611303565b50505b505050565b81516001600160401b0381111561133757611337610e4b565b61134b81611345845461129a565b846112d2565b6020601f82116001811461137d575f83156113665750848201515b5f19600385901b1c1916600184901b178455611316565b5f84815260208120601f198516915b828110156113ac578785015182556020948501946001909201910161138c565b50848210156113c957868401515f19600387901b60f8161c191681555b50505050600190811b01905550565b5f600182016113f557634e487b7160e01b5f52601160045260245ffd5b5060010190565b634e487b7160e01b5f52603260045260245ffd5b5f815461141c8161129a565b808552600182168015611436576001811461145257611486565b60ff1983166020870152602082151560051b8701019350611486565b845f5260205f205f5b8381101561147d5781546020828a01015260018201915060208101905061145b565b87016020019450505b50505092915050565b6001600160a01b038a168152610120602082018190525f906114b39083018b611410565b82810360408401526114c5818b611410565b905082810360608401526114d9818a611171565b905082810360808401526114ed8189611171565b905082810360a08401526115018188611410565b905082810360c08401526115158187611410565b905082810360e08401526115298186611410565b915050826101008301529a995050505050505050505056fea26469706673582212201fa45de3a1b4b1321044cf141de1874c97294c0c9f1f541a5312b9b344b7f27064736f6c634300081c0033","linkReferences":{}},"methodIdentifiers":{"donorNames(address)":"aea8bade","getDonorName(address)":"0cf4bbfd","getOrder(uint256)":"d09ef241","logOrders(string,string,string,string,string[],string[],string)":"3dd28840","orderCounter()":"b789bf52","orders(uint256)":"a85c38ef"},"id":15}